{
  "contractName": "HedgrWallet",
  "abi": [
    {
      "inputs": [
        {
          "internalType": "address",
          "name": "_factory",
          "type": "address"
        }
      ],
      "payable": false,
      "stateMutability": "nonpayable",
      "type": "constructor"
    },
    {
      "anonymous": false,
      "inputs": [
        {
          "indexed": false,
          "internalType": "uint256",
          "name": "aEthBal",
          "type": "uint256"
        }
      ],
      "name": "Hedged",
      "type": "event"
    },
    {
      "anonymous": false,
      "inputs": [
        {
          "indexed": false,
          "internalType": "uint256",
          "name": "susdIssued",
          "type": "uint256"
        },
        {
          "indexed": false,
          "internalType": "uint256",
          "name": "ethBal",
          "type": "uint256"
        }
      ],
      "name": "Staked",
      "type": "event"
    },
    {
      "payable": true,
      "stateMutability": "payable",
      "type": "fallback"
    },
    {
      "constant": false,
      "inputs": [],
      "name": "stakeAndAllocate",
      "outputs": [],
      "payable": false,
      "stateMutability": "nonpayable",
      "type": "function"
    },
    {
      "constant": false,
      "inputs": [],
      "name": "hedgeWithLeverage",
      "outputs": [],
      "payable": false,
      "stateMutability": "nonpayable",
      "type": "function"
    },
    {
      "constant": true,
      "inputs": [],
      "name": "getSusdBalance",
      "outputs": [
        {
          "internalType": "uint256",
          "name": "",
          "type": "uint256"
        }
      ],
      "payable": false,
      "stateMutability": "view",
      "type": "function"
    },
    {
      "constant": true,
      "inputs": [],
      "name": "getSnxBalance",
      "outputs": [
        {
          "internalType": "uint256",
          "name": "",
          "type": "uint256"
        }
      ],
      "payable": false,
      "stateMutability": "view",
      "type": "function"
    },
    {
      "constant": true,
      "inputs": [],
      "name": "getEthBalance",
      "outputs": [
        {
          "internalType": "uint256",
          "name": "",
          "type": "uint256"
        }
      ],
      "payable": false,
      "stateMutability": "view",
      "type": "function"
    },
    {
      "constant": true,
      "inputs": [],
      "name": "getAEthBalance",
      "outputs": [
        {
          "internalType": "uint256",
          "name": "",
          "type": "uint256"
        }
      ],
      "payable": false,
      "stateMutability": "view",
      "type": "function"
    },
    {
      "constant": true,
      "inputs": [],
      "name": "getSynthDebt",
      "outputs": [
        {
          "internalType": "uint256",
          "name": "",
          "type": "uint256"
        }
      ],
      "payable": false,
      "stateMutability": "view",
      "type": "function"
    }
  ],
  "bytecode": "0x608060405273506b0b2cf20faa8f38a4e2b524ee43e1f4458cc56000806101000a81548173ffffffffffffffffffffffffffffffffffffffff021916908373ffffffffffffffffffffffffffffffffffffffff16021790555073ee38902afda193c8d4eda7f0216f645ad9350402600160006101000a81548173ffffffffffffffffffffffffffffffffffffffff021916908373ffffffffffffffffffffffffffffffffffffffff16021790555073692f391bcc85cefce8c237c01e1f636bbd70ea4d600260006101000a81548173ffffffffffffffffffffffffffffffffffffffff021916908373ffffffffffffffffffffffffffffffffffffffff1602179055507f53796e74686574697800000000000000000000000000000000000000000000006003557357ab1ec28d129707052df4df418d58a2d46d5f51600460006101000a81548173ffffffffffffffffffffffffffffffffffffffff021916908373ffffffffffffffffffffffffffffffffffffffff16021790555073c011a73ee8576fb46f5e1c5751ca3b9fe0af2a6f600560006101000a81548173ffffffffffffffffffffffffffffffffffffffff021916908373ffffffffffffffffffffffffffffffffffffffff16021790555073eeeeeeeeeeeeeeeeeeeeeeeeeeeeeeeeeeeeeeee600660006101000a81548173ffffffffffffffffffffffffffffffffffffffff021916908373ffffffffffffffffffffffffffffffffffffffff16021790555073d483b49f2d55d2c53d32be6eff735cb001880f79600760006101000a81548173ffffffffffffffffffffffffffffffffffffffff021916908373ffffffffffffffffffffffffffffffffffffffff1602179055507fffffffffffffffffffffffffffffffffffffffffffffffffffffffffffffffff6009556000600a60006101000a81548161ffff021916908361ffff1602179055506002600b557f7355534400000000000000000000000000000000000000000000000000000000600c553480156102f157600080fd5b506040516116363803806116368339818101604052602081101561031457600080fd5b810190808051906020019092919050505080600860006101000a81548173ffffffffffffffffffffffffffffffffffffffff021916908373ffffffffffffffffffffffffffffffffffffffff160217905550600460009054906101000a900473ffffffffffffffffffffffffffffffffffffffff1673ffffffffffffffffffffffffffffffffffffffff1663095ea7b3600260009054906101000a900473ffffffffffffffffffffffffffffffffffffffff166009546040518363ffffffff167c0100000000000000000000000000000000000000000000000000000000028152600401808373ffffffffffffffffffffffffffffffffffffffff1673ffffffffffffffffffffffffffffffffffffffff16815260200182815260200192505050602060405180830381600087803b15801561044f57600080fd5b505af1158015610463573d6000803e3d6000fd5b505050506040513d602081101561047957600080fd5b8101908080519060200190929190505050505061119b8061049b6000396000f3fe60806040526004361061008d576000357c0100000000000000000000000000000000000000000000000000000000900480638a8582cd1161006b5780638a8582cd146100fc578063d573b80614610113578063fc8467801461013e578063ff15b2c8146101695761008d565b806338071faa1461008f57806370ed0ada146100a657806389afb5b7146100d1575b005b34801561009b57600080fd5b506100a4610194565b005b3480156100b257600080fd5b506100bb61058f565b6040518082815260200191505060405180910390f35b3480156100dd57600080fd5b506100e66105ae565b6040518082815260200191505060405180910390f35b34801561010857600080fd5b506101116106ab565b005b34801561011f57600080fd5b50610128610c05565b6040518082815260200191505060405180910390f35b34801561014a57600080fd5b50610153610db5565b6040518082815260200191505060405180910390f35b34801561017557600080fd5b5061017e610eb2565b6040518082815260200191505060405180910390f35b600860009054906101000a900473ffffffffffffffffffffffffffffffffffffffff1673ffffffffffffffffffffffffffffffffffffffff16634ba4d357306040518263ffffffff167c0100000000000000000000000000000000000000000000000000000000028152600401808273ffffffffffffffffffffffffffffffffffffffff1673ffffffffffffffffffffffffffffffffffffffff16815260200191505060206040518083038186803b15801561024f57600080fd5b505afa158015610263573d6000803e3d6000fd5b505050506040513d602081101561027957600080fd5b810190808051906020019092919050505073ffffffffffffffffffffffffffffffffffffffff163373ffffffffffffffffffffffffffffffffffffffff16146102c157600080fd5b600160009054906101000a900473ffffffffffffffffffffffffffffffffffffffff1673ffffffffffffffffffffffffffffffffffffffff166321f8a7216003546040518263ffffffff167c01000000000000000000000000000000000000000000000000000000000281526004018082815260200191505060206040518083038186803b15801561035257600080fd5b505afa158015610366573d6000803e3d6000fd5b505050506040513d602081101561037c57600080fd5b810190808051906020019092919050505073ffffffffffffffffffffffffffffffffffffffff1663af086c7e6040518163ffffffff167c0100000000000000000000000000000000000000000000000000000000028152600401600060405180830381600087803b1580156103f057600080fd5b505af1158015610404573d6000803e3d6000fd5b505050506000610412610eb2565b9050600260009054906101000a900473ffffffffffffffffffffffffffffffffffffffff1673ffffffffffffffffffffffffffffffffffffffff16633bba21dc600460009054906101000a900473ffffffffffffffffffffffffffffffffffffffff168360006040518463ffffffff167c0100000000000000000000000000000000000000000000000000000000028152600401808473ffffffffffffffffffffffffffffffffffffffff1673ffffffffffffffffffffffffffffffffffffffff1681526020018381526020018281526020019350505050602060405180830381600087803b15801561050457600080fd5b505af1158015610518573d6000803e3d6000fd5b505050506040513d602081101561052e57600080fd5b810190808051906020019092919050505050600061054a61058f565b90507f925435fa7e37e5d9555bb18ce0d62bb9627d0846942e58e5291e9a2dded462ed8282604051808381526020018281526020019250505060405180910390a15050565b60003073ffffffffffffffffffffffffffffffffffffffff1631905090565b6000600560009054906101000a900473ffffffffffffffffffffffffffffffffffffffff1673ffffffffffffffffffffffffffffffffffffffff166370a08231306040518263ffffffff167c0100000000000000000000000000000000000000000000000000000000028152600401808273ffffffffffffffffffffffffffffffffffffffff1673ffffffffffffffffffffffffffffffffffffffff16815260200191505060206040518083038186803b15801561066b57600080fd5b505afa15801561067f573d6000803e3d6000fd5b505050506040513d602081101561069557600080fd5b8101908080519060200190929190505050905090565b600860009054906101000a900473ffffffffffffffffffffffffffffffffffffffff1673ffffffffffffffffffffffffffffffffffffffff16634ba4d357306040518263ffffffff167c0100000000000000000000000000000000000000000000000000000000028152600401808273ffffffffffffffffffffffffffffffffffffffff1673ffffffffffffffffffffffffffffffffffffffff16815260200191505060206040518083038186803b15801561076657600080fd5b505afa15801561077a573d6000803e3d6000fd5b505050506040513d602081101561079057600080fd5b810190808051906020019092919050505073ffffffffffffffffffffffffffffffffffffffff163373ffffffffffffffffffffffffffffffffffffffff16146107d857600080fd5b60003073ffffffffffffffffffffffffffffffffffffffff1631905060008060009054906101000a900473ffffffffffffffffffffffffffffffffffffffff1673ffffffffffffffffffffffffffffffffffffffff16630261bf8b6040518163ffffffff167c010000000000000000000000000000000000000000000000000000000002815260040160206040518083038186803b15801561087957600080fd5b505afa15801561088d573d6000803e3d6000fd5b505050506040513d60208110156108a357600080fd5b810190808051906020019092919050505090508073ffffffffffffffffffffffffffffffffffffffff1663d2d0e06683600660009054906101000a900473ffffffffffffffffffffffffffffffffffffffff1685600a60009054906101000a900461ffff166040518563ffffffff167c0100000000000000000000000000000000000000000000000000000000028152600401808473ffffffffffffffffffffffffffffffffffffffff1673ffffffffffffffffffffffffffffffffffffffff1681526020018381526020018261ffff1661ffff16815260200193505050506000604051808303818588803b15801561099b57600080fd5b505af11580156109af573d6000803e3d6000fd5b50505050508073ffffffffffffffffffffffffffffffffffffffff16635a3b74b9600660009054906101000a900473ffffffffffffffffffffffffffffffffffffffff1660016040518363ffffffff167c0100000000000000000000000000000000000000000000000000000000028152600401808373ffffffffffffffffffffffffffffffffffffffff1673ffffffffffffffffffffffffffffffffffffffff1681526020018215151515815260200192505050600060405180830381600087803b158015610a7e57600080fd5b505af1158015610a92573d6000803e3d6000fd5b505050508073ffffffffffffffffffffffffffffffffffffffff1663c858f5f9600660009054906101000a900473ffffffffffffffffffffffffffffffffffffffff16610afc6003610aee600288610faf90919063ffffffff16565b61103590919063ffffffff16565b600b54600a60009054906101000a900461ffff166040518563ffffffff167c0100000000000000000000000000000000000000000000000000000000028152600401808573ffffffffffffffffffffffffffffffffffffffff1673ffffffffffffffffffffffffffffffffffffffff1681526020018481526020018381526020018261ffff1661ffff168152602001945050505050600060405180830381600087803b158015610bab57600080fd5b505af1158015610bbf573d6000803e3d6000fd5b505050507ff66eb331c329e3587580793119fc21aac41697907c5af53030374c15c9228179610bec610db5565b6040518082815260200191505060405180910390a15050565b6000600160009054906101000a900473ffffffffffffffffffffffffffffffffffffffff1673ffffffffffffffffffffffffffffffffffffffff166321f8a7216003546040518263ffffffff167c01000000000000000000000000000000000000000000000000000000000281526004018082815260200191505060206040518083038186803b158015610c9857600080fd5b505afa158015610cac573d6000803e3d6000fd5b505050506040513d6020811015610cc257600080fd5b810190808051906020019092919050505073ffffffffffffffffffffffffffffffffffffffff1663d37c4d8b30600c546040518363ffffffff167c0100000000000000000000000000000000000000000000000000000000028152600401808373ffffffffffffffffffffffffffffffffffffffff1673ffffffffffffffffffffffffffffffffffffffff1681526020018281526020019250505060206040518083038186803b158015610d7557600080fd5b505afa158015610d89573d6000803e3d6000fd5b505050506040513d6020811015610d9f57600080fd5b8101908080519060200190929190505050905090565b6000600760009054906101000a900473ffffffffffffffffffffffffffffffffffffffff1673ffffffffffffffffffffffffffffffffffffffff166370a08231306040518263ffffffff167c0100000000000000000000000000000000000000000000000000000000028152600401808273ffffffffffffffffffffffffffffffffffffffff1673ffffffffffffffffffffffffffffffffffffffff16815260200191505060206040518083038186803b158015610e7257600080fd5b505afa158015610e86573d6000803e3d6000fd5b505050506040513d6020811015610e9c57600080fd5b8101908080519060200190929190505050905090565b6000600460009054906101000a900473ffffffffffffffffffffffffffffffffffffffff1673ffffffffffffffffffffffffffffffffffffffff166370a08231306040518263ffffffff167c0100000000000000000000000000000000000000000000000000000000028152600401808273ffffffffffffffffffffffffffffffffffffffff1673ffffffffffffffffffffffffffffffffffffffff16815260200191505060206040518083038186803b158015610f6f57600080fd5b505afa158015610f83573d6000803e3d6000fd5b505050506040513d6020811015610f9957600080fd5b8101908080519060200190929190505050905090565b600080831415610fc2576000905061102f565b6000828402905082848281610fd357fe5b041461102a576040517f08c379a00000000000000000000000000000000000000000000000000000000081526004018080602001828103825260218152602001806111466021913960400191505060405180910390fd5b809150505b92915050565b600061107783836040518060400160405280601a81526020017f536166654d6174683a206469766973696f6e206279207a65726f00000000000081525061107f565b905092915050565b6000808311829061112b576040517f08c379a00000000000000000000000000000000000000000000000000000000081526004018080602001828103825283818151815260200191508051906020019080838360005b838110156110f05780820151818401526020810190506110d5565b50505050905090810190601f16801561111d5780820380516001836020036101000a031916815260200191505b509250505060405180910390fd5b50600083858161113757fe5b04905080915050939250505056fe536166654d6174683a206d756c7469706c69636174696f6e206f766572666c6f77a265627a7a7231582084022c250b0ffce6ac692e041f27ab72de7bc6ef78962028965187ef3815f3f664736f6c634300050f0032",
  "source": "pragma solidity 0.5.15;\n\nimport \"@openzeppelin/contracts/token/ERC20/IERC20.sol\";\nimport \"@openzeppelin/contracts/math/SafeMath.sol\";\n\nimport \"./interface/IAddressResolver.sol\";\nimport \"./interface/IAddressesProvider.sol\";\nimport \"./interface/ISynthetix.sol\";\nimport \"./interface/IKyberNetworkProxy.sol\";\nimport \"./interface/ILendingPool.sol\";\nimport \"./interface/IHedgrWalletFactory.sol\";\n\n\ncontract HedgrWallet {\n    using SafeMath for uint256;\n\n    // kovan\n    ILendingPoolAddressesProvider aaveProvider = ILendingPoolAddressesProvider(\n        0x506B0B2CF20FAA8f38a4E2B524EE43e1f4458Cc5\n    );\n    IAddressResolver addressResolver = IAddressResolver(\n        0xee38902aFDA193c8d4EDA7F0216f645AD9350402\n    );\n    IKyberNetworkProxy kyberProxy = IKyberNetworkProxy(\n        0x692f391bCc85cefCe8C237C01e1f636BbD70EA4D\n    );\n\n    bytes32 synthetixName = \"Synthetix\";\n\n    address susdAddress = 0x57Ab1ec28D129707052df4dF418D58a2D46d5f51;\n    address snxAddress = 0xC011a73ee8576Fb46F5E1c5751cA3B9Fe0af2a6F;\n    address ethAddress = 0xEeeeeEeeeEeEeeEeEeEeeEEEeeeeEeeeeeeeEEeE;\n    address aEthAddress = 0xD483B49F2d55D2c53D32bE6efF735cB001880F79;\n\n    address factory;\n\n    uint MAX_UINT = 2**256 - 1;\n\n    constructor(address _factory) public {\n       factory = _factory;\n       IERC20(susdAddress).approve(address(kyberProxy), MAX_UINT);\n    }\n\n    event Staked(uint susdIssued, uint ethBal);\n    event Hedged(uint aEthBal);\n\n    // Aave\n    uint16 referral = 0;\n    uint256 variableRate = 2;\n    bytes32 susd = \"sUSD\";\n\n    modifier onlyWalletOwner {\n        require(msg.sender == IHedgrWalletFactory(factory).getWalletUser(address(this)));\n        _;\n    }\n\n    function stakeAndAllocate() public onlyWalletOwner {\n        ISynthetix(addressResolver.getAddress(synthetixName)).issueMaxSynths();\n        uint susdBal = getSusdBalance();\n\n        kyberProxy.swapTokenToEther(ERC20(susdAddress), susdBal, 0);\n        uint ethBal = getEthBalance();\n\n        emit Staked(susdBal, ethBal);\n    }\n\n    function hedgeWithLeverage() public onlyWalletOwner {\n        uint256 ethBal = address(this).balance;\n\n        ILendingPool lendingPool = ILendingPool(aaveProvider.getLendingPool());\n        lendingPool.deposit.value(ethBal)(ethAddress, ethBal, referral);\n        lendingPool.setUserUseReserveAsCollateral(ethAddress, true);\n\n        // borrow 67% of deposit\n        lendingPool.borrow(ethAddress, ethBal.mul(2).div(3), variableRate, referral);\n\n        emit Hedged(getAEthBalance());\n    }\n\n    function getSusdBalance() public view returns (uint256) {\n        return IERC20(susdAddress).balanceOf(address(this));\n    }\n\n    function getSnxBalance() public view returns (uint256) {\n        return IERC20(snxAddress).balanceOf(address(this));\n    }\n\n    function getEthBalance() public view returns(uint){\n        return address(this).balance;\n    }\n\n    function getAEthBalance() public view returns(uint){\n        return IERC20(aEthAddress).balanceOf(address(this));\n    }\n\n    function getSynthDebt() public view returns(uint){\n        return ISynthetix(addressResolver.getAddress(synthetixName)).debtBalanceOf(address(this), susd);\n    }\n\n    function() external payable {}\n}\n",
  "sourcePath": "/Users/michaeljcohen/Desktop/projects/hedgr/contracts/HedgrWallet.sol",
  "compiler": {
    "name": "solc",
    "version": "0.5.15+commit.6a57276f.Emscripten.clang"
  },
  "schemaVersion": "3.0.2",
  "updatedAt": "2020-05-27T18:46:01.736Z",
  "devdoc": {
    "methods": {}
  },
  "userdoc": {
    "methods": {}
  }
}